:020000040800F2
:100000005804002035010008270E00081B0D0008C9
:10001000250E0008C5010008291100080000000095
:100020000000000000000000000000002B0E00088F
:10003000C701000800000000290E00082D0E00086E
:100040004F0100084F0100084F0100084F01000850
:100050004F0100084F0100084F0100084F01000840
:100060004F0100084F0100084F0100084F01000830
:100070004F0100084F0100084F0100084F01000820
:100080004F0100084F0100084F0100080000000068
:100090000000000000000000000000004F01000808
:1000A0004F0100084F0100084F0100084F010008F0
:1000B0004F0100084F0100084F0100084F010008E0
:1000C0004F0100084F0100084F0100084F010008D0
:1000D0004F0100084F0100084F0100081D110008E2
:1000E0004F0100084F0100084F0100080000000008
:1000F0000000000000000000000000000000000000
:1001000000000000000000000000000000000000EF
:1001100000000000000000004F0100084F0100082F
:10012000DFF80CD000F03CF8004800478D130008C1
:10013000580400200648804706480047FEE7FEE7CF
:10014000FEE7FEE7FEE7FEE7FEE7FEE7FEE7FEE787
:10015000790E0008210100080649074A0868504343
:1001600043F23902104408604008704701490860B2
:1001700070470000140000206D4EC641D2B201E06D
:1001800000F8012B491EFBD270470022F6E710B59C
:1001900013460A4604461946FFF7F0FF204610BDF5
:1001A000064C074D06E0E06840F0010394E80700C4
:1001B00098471034AC42F6D3FFF7B6FF001500089D
:1001C00020150008FEE770477047000010B590F852
:1001D00021100024022903D00421816301243DE081
:1001E00001680A6822F00E020A6001680A6822F0BB
:1001F00001020A601A4A0168914201D1012121E0FD
:10020000174A1432914201D110211BE0144A2832BE
:10021000914201D1891515E0114A3C32914201D138
:1002200089140FE00E4A5032914202D14FF48031CE
:1002300008E00B4A6432914202D14FF4801101E090
:100240004FF08071064A083A5160012180F8211070
:10025000002180F82010416B01B18847204610BD75
:100260000800024070B5044600F012F90546601C13
:1002700002D0074800780444064E00BF00F008F999
:10028000401BA04202D230780028F7D070BD000099
:1002900004000020000000202DE9F84FDFF8B8919D
:1002A000002409F1040A0AF1040B23460F270BF17D
:1002B000040EC9E00125A5402A40AA427DD1674E1F
:1002C000D1F804C0ACEB0608B44532D014DCBCF164
:1002D000030F3AD009DCBCF1000F2AD0BCF1010FAA
:1002E0001CD0BCF1020F31D11DE0BCF1110F17D0B1
:1002F000BCF1120F2AD119E0B8F5881F19D006DC1D
:10030000B8F5803F15D0B8F5801F1FD111E0B8F5C2
:10031000001F0ED0B8F5041F18D10AE0CB6815E015
:10032000CB681B1D12E0CB6808330FE0CB680C33A1
:100330000CE08B682BB1012B4FF0080303D0456113
:1003400004E0042302E0056100E00023FF2A01D855
:10035000064601E000F104064FEA840501D9A5F143
:100360002005D6F8008007FA05FC28EA0C0803FAF5
:1003700005F548EA0508C6F800804D68ED0062D52D
:10038000374DAE6946F00106AE61AD6924F0030653
:1003900005F001050095334D06EB050CDCF808501F
:1003A000A607360F07FA06F825EA0805DFF8B88031
:1003B000404503D14FF0000817E044E0DFF8AC807F
:1003C000404502D14FF001080FE0DFF8A48040451E
:1003D00002D14FF0020808E0DFF89880404502D1D2
:1003E0004FF0030801E04FF0040808FA06F848EA65
:1003F0000508CCF808804D68D9F80060ED034D463B
:1004000001D5164300E096432E604D68DAF800608F
:10041000AD03554601D5164300E096432E604D6866
:10042000DBF80060ED025D4601D5164300E096431F
:100430002E604D68DEF80060AD02754601D51643AA
:1004400000E096432E60641C0D682A46E5407FF468
:1004500031AFBDE8F88F000000040140000011102A
:10046000001002400000014000080140000C014063
:100470000010014000140140C2680A4201D04161ED
:100480007047016170470AB1016170470904FBE7D9
:10049000014880687047000004000020024881681D
:1004A00002781144816070470400002010B50320D9
:1004B00000F074F8002000F005F800F023F80020A8
:1004C00010BD000070B50D4D04464FF47A712878C8
:1004D000B1FBF0F00A490968B1FBF0F000F0D2FA84
:1004E00048B9102C07D200222146501E00F036F8E1
:1004F00000206C6070BD012070BD00000400002071
:10050000100000200C4808B5816941F001018161AB
:10051000816901F001010091C16941F08051C1611F
:10052000C06900F0805000900448416821F0E0610B
:1005300041F00071416008BD001002400000014020
:10054000002809DB00F01F020121914040098000D2
:1005500000F1E020C0F8001170470000F0B40E4B2D
:100560001B680C46C3F30223C3F10705042D00D911
:100570000425191D072901D2002300E0DB1E0126F6
:1005800006FA05F1491E214099409E40761E16400C
:100590003143F0BC00F0C9BD0CED00E0064900F0AD
:1005A000070208684FF6FF03184040EA0220034A9A
:1005B00010430860704700000CED00E00000FA05F1
:1005C0002DE9F041050027D02868334C810712D56A
:1005D000400703D5606840F4E06060602878000759
:1005E00003D5606840F4605060606068A96820F0DE
:1005F000F000084360602878C00729D068680128A7
:1006000004D02168022804D0890703E02168890307
:1006100000E08901002902DB0120BDE8F08161686A
:1006200021F0030101436160FFF732FF064641F20A
:10063000883706E0FFF72CFF801BB84201D9032062
:10064000EBE76068696800F00C00B0EB810FF1D156
:100650002878400705D56068E96820F4E060084321
:1006600060602878000706D56068296920F460502A
:1006700040EAC100606000F037F86168074AC1F3E2
:100680000311515CC8400649086006480068FFF73E
:1006900019FF0020C1E7000000100240E814000824
:1006A000100000200800002004480549006849683F
:1006B000044AC1F30221515CC84070471000002079
:1006C00000100240F8140008044805490068496811
:1006D000044AC1F3C221515CC84070471000002099
:1006E00000100240F814000813A188B00FC98DE86B
:1006F0000F0015A10DF1100C0FC98CE80F00164A60
:100700005168164801F00C03042B10D0082B0ED1B1
:10071000C1F38343C9031DF803000AD5D16A04AAB3
:1007200001F00F01515C0D4A5043B0FBF1F008B0ED
:1007300070470B494843FAE7020304050607080916
:100740000A0B0C0D0E0F101001020304050607081A
:10075000090A0B0C0D0E0F100010024000127A0057
:1007600000093D002DE9F84F040070D02078C04DFD
:10077000C00749D06868C0F38100012807D06868C5
:10078000C0F38100022809D16868C00306D5286833
:10079000800339D560680028E7D035E06068B0F59F
:1007A000803F0BD010B1B0F5A02F11D0286820F4F5
:1007B00080302860286820F4802002E0286840F417
:1007C00080302860606890B1FFF762FE06460AE05C
:1007D000286840F480202860F0E700BFFFF758FE4B
:1007E000801B642873D828688003F7D50CE0FFF7D6
:1007F0004FFE064605E000BFFFF74AFE801B642857
:10080000F0D828688003F7D420789A4E80074FF0FC
:1008100001094FF0000839D5686810F00C0F07D0B7
:100820006868C0F38100022809D16868C00306D453
:100830002868800714D52069012808D110E02069B4
:10084000B0B1C6F80090FFF723FE074605E00AE1C5
:10085000FFF71EFEC01B0228C4D828688007F7D502
:100860002868616920F0F80040EAC10028600DE0C6
:10087000C6F80080FFF70CFE074604E0FFF708FE0D
:10088000C01B022823D828688007F7D420780007E7
:100890002CD57948A169D9B1C0F80090FFF7F8FDCF
:1008A000074604E0FFF7F4FDC01B02280FD8686A72
:1008B0008007F7D571484FF4FA510068B0FBF1F0AA
:1008C000009000BF0098411E0091FAD20EE080E037
:1008D000C0F80080FFF7DCFD074604E0FFF7D8FD15
:1008E000C01B022875D8686A8007F7D420784007B3
:1008F00060D5E8690027C00008D4E86940F080505E
:10090000E861E869012700F0805000905C480168C8
:10091000C90513D40168834641F480710160FFF773
:10092000B7FD824606E000BFFFF7B2FDA0EB0A006C
:1009300064284ED8DBF80000C005F5D5E068012832
:100940000AD008B1052813D0286A20F001002862D7
:10095000286A20F0040002E0286A40F001002862C2
:10096000E06841F2883B98B1FFF792FD82460BE0C8
:10097000286A40F004002862EEE700BFFFF788FD18
:10098000A0EB0A0159455AD8286A8007F6D50CE031
:10099000FFF77EFD824605E0FFF77AFDA0EB0A0136
:1009A00059454CD8286A8007F6D41FB1E86920F071
:1009B0008050E861E06988B36968C1F38101022968
:1009C00044D00228C6F8608004D0FFF761FD0446D9
:1009D00038E034E0FFF75CFD074604E0FFF758FD20
:1009E000C01B02282BD828688001F7D4206AB0F5F4
:1009F000803F05D1E86AA16820F00F000843E86253
:100A0000D4E908010843696821F474110843686057
:100A1000C6F86090FFF73CFD044606E025E000BF05
:100A2000FFF736FD001B022809D828688001F7D59A
:100A30001BE000BFFFF72CFD001B022802D903209A
:100A4000BDE8F88F28688001F4D40EE00128F7D0C3
:100A50006868226A00F48031914204D1616A00F42E
:100A60007010884201D00120EAE70020E8E700008A
:100A70000010024000004242800442421000002068
:100A80000070004010B5401EB0F1807F01D30120FE
:100A900010BD4FF0E02460610F21601700F045FBAE
:100AA0000020A06107202061002010BD70470000D9
:100AB00070B5026804461068D168536910F00F0FD2
:100AC00050D003F0010501F4907635435DD0C207A4
:100AD00005D0CA0503D5E26B42F00102E26342078A
:100AE00005D5DA0703D0E26B42F00202E263820727
:100AF00005D5DA0703D0E26B42F00402E263020795
:100B000005D5DA0703D0E26B42F00802E263E26B3C
:100B1000002A33D0800604D5880602D5204600F08E
:100B2000E7F920684069E16BC0F38010090700D441
:100B300028B3204600F0CEF92068416949061AD54D
:100B4000416921F040014161606BA0B11B494163E3
:100B5000606BFFF73BFB002810D0606B416BBDE87A
:100B600070400847830610D58B060ED52046BDE899
:100B7000704000F0BDB92046FFF798FF70BD2046D9
:100B8000FFF794FF0020E06370BD030606D50B0657
:100B900004D52046BDE8704000F08EBA4006F3D57B
:100BA0004806F1D5D168204621F04001D1602021CE
:100BB00084F8391000F0B0F870BD0000C50E0008D0
:100BC00070B5040004D094F83900002510B106E097
:100BD000012070BD84F83850204600F023F824200E
:100BE00084F839002068C16821F40051C1602046B2
:100BF00000F0CAF92068016921F490410161206880
:100C0000416921F02A0141612068C16841F4005125
:100C1000C160E563202084F8390084F83A000020A0
:100C200070BD000030B585B000240094019402949A
:100C300003940068184988422CD11848C16941F4CE
:100C40008021C161C16901F480210491816941F071
:100C5000080181618069124D00F0080004904FF492
:100C6000806000900220019003200390694628468E
:100C7000FFF712FBE814CDE9000469462846029408
:100C8000FFF70AFB002211462720FFF767FC272009
:100C9000FFF756FC05B030BD004800400010024090
:100CA000000C014090F83A30202B22D1F9B1F2B17A
:100CB00090F83830012B1CD081628285C2850021DA
:100CC000C163222280F83A2080F838100168CA688F
:100CD00042F48072CA6001684A6942F001024A61C6
:100CE0000068C16841F02001C16000207047012008
:100CF00070470220704700000549884207D1054926
:100D0000012003220870491C0148FFF7CBBF704740
:100D100018000020000000207047FEE72DE9F04792
:100D200086B000242D4800940194029403948169B4
:100D300041F010018161816901F010010491816924
:100D400041F020018161816901F0200104918169F4
:100D500041F004018161816901F00401049181691C
:100D600041F0080181618069DFF8748000F00800BB
:100D700040F605350490002229464046FFF783FBE4
:100D8000DFF8609048F6AA27002239464846FFF768
:100D90007AFBDFF854A0002204215046FFF773FBD2
:100DA0000095022601250396CDE901546946404687
:100DB000FFF772FA00970396CDE901546946484659
:100DC000FFF76AFA0420CDE90005CDE9024669463D
:100DD0005046FFF761FA06B0BDE8F0870010024008
:100DE0000010014000080140001401400C4810B5FB
:100DF0000A4901604FF4E1314160002181600C2219
:100E0000C160C0E904128161C161FFF7D9FE002809
:100E100003D0BDE81040FFF7D7B910BD004800402F
:100E200018000020FEE7704770477047FFF736BB99
:100E300030B58FB028216846FFF7A7F914210AA81A
:100E4000FFF7A3F90120009000040024CDE901047C
:100E50000225CDE90750800009906846FFF782FC23
:100E60000F200A90CDE90B540D9400210AA80E948E
:100E7000FFF7A6FB0FB030BD0E48016841F001013D
:100E8000016041680C4A1140416001680B4A114001
:100E90000160016821F480210160416821F4FE01B4
:100EA00041604FF41F0181600021C1620449C00309
:100EB00008607047001002400000FFF8FFFFF6FED8
:100EC00008ED00E010B5406A0021C185C184FFF73C
:100ED000EDFD10BD0168CA6822F49072CA60016815
:100EE0004A6922F001024A61202180F83A107047D5
:100EF00010B590F83A10222901D0022010BD816867
:100F0000B1F5805F11D00169002901681FD04968DF
:100F100001F07F03816A4A1C82620B70C18D491EF9
:100F20000904090CC18518D02BE00269816A002AE6
:100F30000268526805D0D2B20A80816A491C816277
:100F4000ECE7C2F308020A80816A891CF7E74A6865
:100F5000816A4B1C83620A70E0E70168CA6822F06C
:100F60002002CA600168CA6822F48072CA600168FF
:100F70004A6922F001024A61202180F83A10FFF705
:100F8000BBFE002010BD00002DE9F04104460068C2
:100F90000169E26821F44051114301612169A068AF
:100FA000E26908436169114322680843D16849F244
:100FB0000C6399430143D16020684169A26921F41F
:100FC000407111434161E16964253226B1F5004F5A
:100FD0003848216804D081423DD1FFF775FB3CE0E1
:100FE000814202D1FFF770FB01E0FFF75DFB00EBF0
:100FF000C00101EB001160686FF0180C4000B1FBFC
:10100000F0F3B3FBF5F3B1FBF0F7B1FBF0F203FB48
:101010000CF307EB830306EBC303B2FBF5F2B3FB60
:10102000F5F3120103F0F80302EB4302B1FBF0F316
:10103000B1FBF0F0B0FBF5F000FB0CF003EB80002F
:1010400006EBC000B0FBF5F000F00700216810448B
:101050008860BDE8F081FFF727FB00EBC00101EBE2
:10106000001160686FF018078000B1FBF0F2B2FB6E
:10107000F5F2B1FBF0F37A4303EB8202B1FBF0F33C
:1010800006EB0212B2FBF5F2B3FBF5F302F0F0024D
:1010900002EB0312B1FBF0F3B1FBF0F0B0FBF5F0A3
:1010A000784303EB800006EB0010B0FBF5F000F096
:1010B0000F00CBE70038014090F83910212901D00A
:1010C000022070478168B1F5805F016A0BD04A1C2D
:1010D0000262026809785160C18C491E0904090C3A
:1010E000C1840ED017E009880268C1F3080151607D
:1010F00001690029016A02D0491C0162ECE7891CE0
:10110000FBE70168CA6822F08002CA600068C16813
:1011100041F04001C1600020704700000148FFF726
:10112000C7BC000018000020FEE70907090E0028D0
:1011300004DB00F1E02080F80014704700F00F009D
:1011400000F1E02080F8141D704702E008C8121F6B
:1011500008C1002AFAD170477047002001E001C1A0
:10116000121F002AFBD1704770B5074D002400BF45
:1011700005EBC4000022818855F83400FFF783F99D
:10118000641C0B2CF4DB70BD9014000870B5084D86
:1011900006460A2405EBC4000022818855F8340075
:1011A000FFF771F93046FFF75DF8641EF2D570BDA8
:1011B0009014000870B5094D0646002405EBC400E4
:1011C0000022818855F83400FFF75DF93046FFF7BB
:1011D00049F8641C0B2CF1DB70BD00009014000872
:1011E00070B5074D002400BF05EBC40001228188C3
:1011F00055F83400FFF747F9641C0B2CF4DB70BD85
:101200009014000870B5084D06460A2405EBC4008A
:101210000122818855F83400FFF735F93046FFF791
:1012200021F8641EF2D570BD9014000870B5094D08
:101230000646002405EBC4000122818855F83400DD
:10124000FFF721F93046FFF70DF8641C0B2CF1DB9A
:1012500070BD00009014000870B5074D002400BF59
:1012600005EBC400818855F83400FFF705F9641CCC
:101270000B2CF5DB70BD00009014000810B504467F
:10128000FFF7EAFF2046BDE81040FEF7EBBF70B560
:101290000546FEF761FF0B2190FBF1F201FB120006
:1012A000C4B2FEF759FF90FBF5F105FB110081B2C6
:1012B0002046BDE8704000F0CDB810B50446FFF7F9
:1012C000A1FFFFF751FF2046BDE81040FEF7CABF5F
:1012D00010B50446FFF796FF2046BDE81040FFF723
:1012E00055BF10B50446FFF78DFF2046BDE81040FE
:1012F000FFF760BFFFF738BFFFF772BF10B50446B6
:10130000FFF780FF2046FFF741FF2046FEF7AAFFC8
:101310002046FFF78BFF2046FFF74CFF2046BDE835
:101320001040FEF79FBF10B50446FFF77FFF204631
:10133000FFF740FF2046FEF795FF2046FFF762FFCC
:101340002046FFF723FF2046BDE81040FEF78ABF86
:1013500010B50446FFF76AFFFFF706FF2046BDE819
:101360001040FEF77FBF10B50446FFF75FFF204631
:10137000BDE81040FFF70ABF10B50446FFF756FF5F
:101380002046BDE81040FFF715BF0000FFF78EF8BC
:10139000FFF74EFDFFF7C2FCFFF728FD03222B49A4
:1013A0002B48FFF77FFC294E0024751E30780D284E
:1013B0000DD2DFE800F00C070B0F151B21272D3392
:1013C000393F45002C70FFF797FFEFE72C70FFF7D0
:1013D00091FFEBE72C70B6F80100FFF74FFFE5E750
:1013E0002C70B6F80100FFF7B3FFDFE72C70B6F8FA
:1013F0000100FFF762FFD9E72C70B6F80100FFF794
:10140000BBFFD3E72C70B6F80100FFF761FFCDE713
:101410002C70B6F80100FFF7A6FFC7E72C70B6F8EE
:101420000100FFF75EFFC1E72C70B6F80100FFF77F
:101430002EFFBBE72C70B6F80100FFF774FFB5E78D
:101440002C70B6F80100FFF759FFAFE7010000204C
:10145000180000202DE9F0410C4D044605EBC406B0
:101460000F46B18855F834000122FFF70CF83846D2
:10147000FEF7F8FEB18855F834000022FFF703F8B4
:101480003846BDE8F041FEF7EDBE000090140008BC
:1014900000080140020000000010014001000000AF
:1014A000001001400400000000080140008000001E
:1014B0000008014008000000001401400400000082
:1014C00000080140800000000010014000080000FA
:1014D0000008014020000000000801400008000052
:1014E00000080140000200000000000000000000B1
:1014F00001020304060708090000000001020304BA
:101500002015000800000020180000004A11000803
:101510003815000818000020400400005A11000887
:1015200000000000010000001000000000000000AA
:081530000024F400000000009B
:0400000508000121CD
:00000001FF
